:107000005FC0000078C0000076C0000074C00000BF
:1070100072C0000070C000006EC000006CC00000B4
:107020006AC0000068C00000D8C4000064C000004E
:1070300062C0000060C000005EC000005CC00000D4
:107040005AC00000E6C0000056C0000054C0000056
:1070500052C0000050C000004EC000004CC00000F4
:107060004AC0000048C0000046C0000044C0000004
:1070700042C0000040C000003EC000003CC0000014
:107080003AC0000038C0000036C0000034C0000024
:1070900032C0000030C000002EC000002CC0000034
:1070A0002AC0000028C0000026C00000583E713EE3
:1070B0001D3F713E1D3FA93ECB3E1D3FEB3EFD3EB9
:1070C00011241FBECFEFDAE0DEBFCDBF11E0A0E09C
:1070D000B1E0E4ECFEE702C005900D92AE3BB107D3
:1070E000D9F721E0AEEBB1E001C01D92A43DB2079B
:1070F000E1F758D3E5C684CF84E08093E90080911E
:10710000E80085FD0DC08091E8008B778093E80052
:107110008091E80082FDF3CF8EB38111F9CF02C0D8
:107120008091F100089593E09093E9009091E80038
:1071300095FF09C08093F10084E690E09093C3012D
:107140008093C20108959091E8009E779093E800A3
:107150009091E80090FDEECF9EB39111F9CF089584
:10716000F894109211081092100810926F0010926B
:107170008100109285001092840081E085BF15BEC9
:1071800047980C94000008952091C8013091C901DE
:107190002F5F3F4F3093C9012093C801832F37FFE2
:1071A00002C08EEF831B3327880F90E0821793076E
:1071B00014F447980895479A089584B7877F84BF49
:1071C0000FB6F894A8958091600088618093600064
:1071D000109260000FBE90E880E00FB6F894909394
:1071E0006100809361000FBE81E085BF82E085BFB2
:1071F0003F9AE1E6F0E09083108247981092890070
:107200009AEF9093880080936F0083E080938100D1
:10721000CCC31F920F920FB60F9211242F938F930E
:107220009F93EF93FF9310928500109284008091BA
:10723000C2019091C301009729F001979093C30177
:107240008093C2018091C0019091C101009729F003
:1072500001979093C1018093C001E0E0F0E0859137
:107260009491019649F08091BE019091BF010196E1
:107270009093BF018093BE01FF91EF919F918F91F9
:107280002F910F900FBE0F901F90189542E061EC68
:1072900082E020D342E161E883E01CD342E160E870
:1072A00084E018C38091CC01982F9F77913239F5F3
:1072B0009091CD01903291F0913209F5813AF9F433
:1072C0008091E800877F8093E80067E070E083E0CA
:1072D00091E034D48091E8008B770FC0813279F44B
:1072E0008091E800877F8093E80067E070E083E0AA
:1072F00091E07CD48091E8008E778093E800089537
:107300004F925F926F927F928F929F92AF92BF92B5
:10731000CF92DF92EF92FF920F931F93CF93DF9361
:1073200084E08093E9008091E80082FF2AC284E62D
:1073300090E09093C1018093C001DEDEC82F8534B8
:1073400081F48CE195E29093BF018093BE0107B672
:1073500000FCFDCFF999FECF81E180935700E895BD
:1073600003C0843521F4C8DE8DE0DDDEE1C18C345C
:10737000D9F38035C9F3843721F484E4D4DE80E086
:10738000F4CF813611F489E5F0CF813491F4B4DE85
:10739000C82FB2DE2C2F30E0322F2227330F90E09F
:1073A000880F991F822B932B092E000CAA0BBB0B65
:1073B00093C1803711F483E5D8CF833549F4C4EB0A
:1073C000D1E08991B0DE21E0CB3BD207D1F7B0C14B
:1073D000863521F481E3A7DE80E3C7CF833731F41C
:1073E00087E8A1DE85E99FDE8EE1BFCF8536B9F45F
:1073F000E0E0F0E083E095E080935700E89507B681
:1074000000FCFDCF90935700E89507B600FCFDCF38
:10741000E058FF4FE11540E7F40771F7A5CF823739
:1074200019F4E1E0F0E00EC0863419F4E0E0F0E099
:1074300009C08E3419F4E3E0F0E004C0813539F47A
:10744000E2E0F0E089E08093570084918ECF8236AD
:1074500031F489E568DE80E066DE80E886CF82343C
:1074600019F0873609F0D0C01092BF011092BE010A
:1074700043DE082F41DED82F3FDE182F8BEB810F24
:10748000823010F08FE371CF8D2F90E0902B10920F
:107490006F00C73609F042C021E120935700E895FC
:1074A000EC01B12C01E0209709F4AAC0C090C401FE
:1074B000D090C501E090C601F090C7011634B9F430
:1074C000EB2DF0E0EC29FD2984912DDEBB2069F045
:1074D00052E0C50ED11CE11CF11CC092C401D09237
:1074E000C501E092C601F092C701B02615C0D701D0
:1074F000C601B695A79597958795CCD414DE82E002
:10750000C80ED11CE11CF11CC092C401D092C5016F
:10751000E092C601F092C7012197C5CF8090C401C7
:107520009090C501A090C601B090C701163441F4F7
:1075300023E0F40120935700E89507B600FCFDCF47
:10754000E12CF12CEC0101E0209709F44DC0163438
:1075500039F5FF2009F14090C4015090C5016090B9
:10756000C6017090C701C8DD2E2D30E0A901582B4F
:10757000F2010A0100935700E8951124F2E04F0E42
:10758000511C611C711C4092C4015092C501609253
:10759000C6017092C70102C0AFDDE82EF02622C0FE
:1075A000ABDD682F8091C4019091C501A091C60107
:1075B000B091C701B695A7959795879573D480919B
:1075C000C4019091C501A091C601B091C701029676
:1075D000A11DB11D8093C4019093C501A093C60164
:1075E000B093C7012197B0CF163441F485E0F40180
:1075F00080935700E89507B600FCFDCF8DE093DD42
:1076000082E080936F0094C0833471F4C091C40110
:10761000D091C50171DD90E021E0FE010C012093C5
:107620005700E8951124A0CE833601F5C090C4011F
:10763000D090C501E090C601F090C7015DDDF60174
:10764000E16090E021E00C0120935700E8951124BF
:10765000F2E0CF0ED11CE11CF11CC092C401D0920B
:10766000C501E092C601F092C7017ECE8D3661F46D
:10767000E091C401F091C50185E080935700E89541
:1076800007B600FCFDCF70CE823551F4E091C40105
:10769000F091C501C591D4918D2F45DD8C2F65CE1C
:1076A000843419F529DD682F8091C4019091C501BA
:1076B000A091C601B091C701B695A79597958795FA
:1076C000F1D38091C4019091C501A091C601B09100
:1076D000C7010296A11DB11D8093C4019093C501FD
:1076E000A093C601B093C7013FCE8436F1F4C09099
:1076F000C401D090C501E090C601F090C701D70148
:10770000C601B695A79597958795C4D30CDD22E061
:10771000C20ED11CE11CF11CC092C401D092C50163
:10772000E092C601F092C70103C08B3109F0AACEE6
:1077300083E08093E9009091E8008091E8008E77E3
:107740008093E80095FD11C08091E80080FD04C0A1
:107750008EB38111F9CF15C08091E8008E778093A8
:10776000E80003C08EB3882361F08091E80080FFB9
:10777000F9CF84E08093E9008091E8008B778093D3
:10778000E800DF91CF911F910F91FF90EF90DF9074
:10779000CF90BF90AF909F908F907F906F905F90B1
:1077A0004F9008952091000830910108109201082F
:1077B0001092000884B714BE0FB6F894A895909163
:1077C0006000986190936000109260000FBEE0E04E
:1077D000F0E0459154914F3F5F4F51F180FD1DC046
:1077E00081FF1DC080911008909111088F3A9D4A29
:1077F00029F410921108109210081AC08FEA9DEA1D
:1078000090931108809310088FEF9EE924E2815035
:1078100090402040E1F700C00000A2DC09C08830A1
:1078200039F4809100019091010128173907A9F7D7
:10783000C4DC78941092BF011092BE0180910201C5
:10784000882369F05DDD0FD38091BE019091BF0167
:107850008131974210F01092020196DCEFCF8091B7
:10786000E00081608093E0007BDC80E090E00895A0
:10787000292F30E02230310559F02330310569F0ED
:1078800021303105F9F482E190E022EA31E01EC0B6
:107890008EE390E024E631E019C0882349F081307E
:1078A00061F0823079F488E190E02AE031E00EC0A6
:1078B00084E090E020E631E009C082E290E02CE331
:1078C00031E004C080E090E020E030E0FA01318354
:1078D000208308958093E900EBEEF0E080818160E1
:1078E0008083EDEEF0E010826093EC0040838091A5
:1078F000EE00881F8827881F08958091CC0187FF9C
:107900000FC08091E80082FD04C08EB38111F9CFD1
:1079100010C08091E8008B770AC08EB3882349F0AD
:107920008091E80080FFF9CF8091E8008E77809306
:10793000E80008950F931F93CF93DF9341D048D071
:10794000C8EDD0E088818F778883888180688883BC
:1079500088818F7D888319BC1EBA1092CA0100EEFF
:1079600010E0F80180818B7F80838881816088832B
:1079700042E060E080E0AEDFE1EEF0E080818E7F0B
:107980008083E2EEF0E08081816080838081886086
:107990008083F80180818E7F8083888180618883E5
:1079A000DF91CF911F910F910895E7EDF0E0808175
:1079B000816080838AE482BF81E08093CB01BACF6B
:1079C000E8EDF0E080818E7F80831092E2000895E0
:1079D0001092DA001092E10008951F920F920FB6F4
:1079E0000F9211242F933F934F935F936F937F9345
:1079F0008F939F93AF93BF93EF93FF938091DA00A0
:107A000080FF1BC08091D80080FF17C08091DA00F2
:107A10008E7F8093DA008091D90080FF0BC080E1D7
:107A200089BD82E189BD09B400FEFDCF81E08EBB36
:107A300019D203C019BC1EBA15D28091E10080FF93
:107A400017C08091E20080FF13C08091E2008E7F1A
:107A50008093E2008091E20080618093E200809157
:107A6000D80080628093D80019BC85E08EBBFAD123
:107A70008091E10084FF2CC08091E20084FF28C047
:107A800080E189BD82E189BD09B400FEFDCF80910E
:107A9000D8008F7D8093D8008091E1008F7E809305
:107AA000E1008091E2008F7E8093E2008091E2000D
:107AB00081608093E2008091CA01811106C08091AB
:107AC000E30087FD02C081E001C084E08EBBCAD123
:107AD0008091E10083FF21C08091E20083FF1DC0FF
:107AE0008091E100877F8093E10082E08EBB10925D
:107AF000CA018091E1008E7F8093E1008091E200D5
:107B00008E7F8093E2008091E20080618093E200AA
:107B100042E060E080E0DEDEA5D1FF91EF91BF9111
:107B2000AF919F918F917F916F915F914F913F9115
:107B30002F910F900FBE0F901F9018952091D2019A
:107B40003091D3012617370748F06115710539F4D4
:107B50002091E8002E772093E80001C0B901FC01D4
:107B600020E06115710571F18EB38823D9F185305C
:107B7000D9F18091E80083FD33C08091E80082FD57
:107B800029C08091E80080FFECCF2091F300809124
:107B9000F20090E0922B6115710551F0883091054B
:107BA00038F421912093F100615071090196F3CFCF
:107BB00021E0089709F020E08091E8008E7780931B
:107BC000E800CFCF2111D0CF05C08EB3882351F06C
:107BD000853051F08091E80082FFF7CF80E0089572
:107BE00081E0089582E0089583E0089561157105AC
:107BF00029F42091E8002B772093E800FC0161151F
:107C0000710531F18EB3882359F1853059F1809196
:107C1000E80083FD23C08091E80082FFF0CF20912F
:107C2000F3008091F20090E0922B892B31F080914B
:107C3000F10081936150710991F78091E8008B7791
:107C40008093E800DCCF8EB3882351F0853051F06B
:107C50008091E80080FFF7CF80E0089581E00895EB
:107C600082E0089583E008950F931F93CF93DF93ED
:107C700000D0CDB7DEB7ECECF1E084ED91E02091DF
:107C8000F10021938E179F07D1F70CDB8091E8005C
:107C900083FFD3C08091CC019091CD01492F50E05A
:107CA0004A30510508F0C9C0FA01EA5AF74CECC055
:107CB000823809F0C2C08091D00187708093E900BA
:107CC0008091EB001092E9009091E800977F9093EB
:107CD000E80085FB882780F98093F1001092F1007D
:107CE00085C0282F2D7F09F0A8C0823009F0A5C0DB
:107CF0008091CE01811127C08091D001877009F455
:107D00009CC08093E9002091EB0020FF1CC09330C1
:107D100021F48091EB00806214C09091EB0090619F
:107D20009093EB0021E030E0A90102C0440F551F01
:107D30008A95E2F74093EA001092EA008091EB0006
:107D400088608093EB001092E9008091E800877FC3
:107D500050C0811172C01091CE011F770FB7F894F7
:107D60008091E800877F8093E800C7DD8091E8007C
:107D700080FFFCCF8091E3008078812B8093E3002B
:107D800080688093E300111102C082E001C083E0AB
:107D90008EBB0FBF52C08058823008F04EC0AE017B
:107DA0004F5F5F4F6091D0018091CE019091CF01E4
:107DB0005FDDBC01892B09F440C09091E800977FFA
:107DC0009093E80089819A81B9DE8091E8008B77F1
:107DD0008093E80032C0803881F58091E800877F89
:107DE0008093E8008091CA018093F1008091E800BF
:107DF0008E778093E80081DD20C081111EC08091C4
:107E0000CE019091CF0199270297BCF48091E800B0
:107E1000877F8093E8008091CE018093CA016DDD59
:107E20008091CA01811106C08091E30087FD02C0E4
:107E300081E001C084E08EBB29DA8091E80083FFF5
:107E40000AC08091EB0080628093EB008091E80093
:107E5000877F8093E8000F900F90DF91CF911F9163
:107E60000F9108950895CF938EB3882359F0C09150
:107E7000E900C7701092E9008091E80083FDF4DE0C
:107E8000C093E900CF910895EE0FFF1F0590F49184
:107E9000E02D0994F999FECF92BD81BDF89A9927FA
:107EA00080B50895262FF999FECF1FBA92BD81BDE6
:107EB00020BD0FB6F894FA9AF99A0FBE019608956C
:047EC000F894FFCF64
:107EC40077770100000000000008180341006400F7
:107ED40061006600720075006900740020004900AA
:107EE4006E00640075007300740072006900650020
:107EF400730020004C004C00430000002203590092
:107F04006F006B006500200053007900730074005B
:107F140065006D00200020002000200020000000EB
:107F24000403090409023E0002010080320904002E
:107F340000010202010005240010010424020405CA
:107F440024060001070582030800FF09040100025A
:107F54000A0000000705040210000107058302104F
:107F6400000112011001020000089A2336000100EA
:0E7F7400020100014341544552494E410000B4
:040000030000700089
:00000001FF
